:020000040001F9
:10B000005842002015B101002FB1010031B10100FB
:10B010000000000000000000000000000000000030
:10B0200000000000000000000000000033B101003B
:10B03000000000000000000035B1010037B1010040
:10B0400039B1010039B10100DDB70100C9B6010015
:10B0500001B701000000000065B2010039B1010034
:10B0600039B1010039B1010039B1010039B1010034
:10B0700039B1010039B1010039B1010039B1010024
:10B0800039B10100FDB3010039B1010039B101004E
:10B0900015B7010039B101001DB7010039B1010038
:10B0A00039B1010039B101000000000000000000CA
:10B0B0000000000000000000000000000000000090
:10B0C0000348854600F0BCF80048004729E4010029
:10B0D00058420020401E00BF00BF00BF00BF00BF9D
:10B0E00000BF00BF00BF00BF00BF00BF00BFF1D165
:10B0F00070470000401E00BF00BF00BF00BF00BF80
:10B1000000BF00BF00BF00BF00BF00BF00BFF1D144
:10B11000704700000321094802680A43026008489A
:10B1200002680A4302600748804707480047FEE775
:10B13000FEE7FEE7FEE7FEE7FEE70000240500402D
:10B14000540500403DB70100C1B0010030B50B46C9
:10B15000014600202022012409E00D46D5409D42F1
:10B1600005D31D469540491B254695404019154677
:10B17000521E002DF1DC30BD70B50024254600289C
:10B1800001DA01244042002901DA01254942FFF792
:10B19000DDFFAC4200D04042002C00D0494270BDDF
:10B1A00010B5431A934209D28318881803E0401E51
:10B1B00001785B1E1970521EF9D210BD03460B4375
:10B1C0009B0703D009E008C9121F08C0042AFAD25D
:10B1D00003E00B780370401C491C521EF9D210BDCD
:10B1E000D2B201E00270401C491EFBD2704700221F
:10B1F000F6E710B513460A4604461946FFF7F0FF76
:10B20000204610BD421C0178401C0029FBD1801A49
:10B21000704730B504460020034600E05B1C9342B3
:10B2200003D2E05CCD5C401BF8D030BD03460A7809
:10B230000270401C491C002AF9D1184670470000D2
:10B24000064C0125064E05E0E36807CC2B430C3C79
:10B2500098471034B442F7D3FFF736FF3C0402009E
:10B260005C040200F0B50025FF248BB001340126F8
:10B270002F460195204603F0DDFD002808D0474801
:10B280004068304204D04648002120183543016010
:10B29000241D76007F1CA4B2042FEBD3FF207D3049
:10B2A00003F0C8FD002807D03E4800210160400798
:10B2B00005433D48006901903C4C280712D0012706
:10B2C00000262F420AD03A48B200111808690969CD
:10B2D000C004C00E8903A258890F90477F00761CD6
:10B2E000042EEED3002D57DA00200590401E4DE0CD
:10B2F000A119403108788506AD0E42B2521C39D0F2
:10B300000121A940089A0091114233D0800903908D
:10B31000284601F08DFC800020580490002802D1BE
:10B320000398032826D103980099032802D1059891
:10B33000084305901F4AA80080180068019A8003FE
:10B34000800F114202D0022802D013E0032811D14D
:10B350000399032907D102281CD00221284603F0B3
:10B360003FFD7F1CFFB20498002803D0049A2846B2
:10B3700003999047761C042EBAD3002F0CD00A48AC
:10B3800000690199884207D00190059800273E4640
:10B390000890ADE70321E1E70BB0F0BD006300408A
:10B3A000006000407C610040000500502C26002019
:10B3B00000650040000700508307FF22DB0E9A4023
:10B3C0008907090E994000280BDA0007000F08389A
:10B3D000830808489B001818C36993430B43C36153
:10B3E0007047830804489B001B1818689043084363
:10B3F0001860704700ED00E000E400E010B5064979
:10B400000020086048608860C860034940390860CF
:10B41000486004F079FC10BD40110140FFB5114FA8
:10B420000446387881B01D461646002801D100F048
:10B43000D9F97869A04211D918200A496043411806
:10B44000002C06D00298CE640D65886400208865C3
:10B4500048650A98C865002005B0F0BD0020C043CB
:10B46000FAE70000DC310020FFB5114F04463878C0
:10B4700081B01D461646002801D100F0B3F93869A5
:10B48000A04211D918200A4960434118002C06D067
:10B490000298CE610D6288610020886248620A9835
:10B4A000C862002005B0F0BD0020C043FAE70000EC
:10B4B000DC31002070B5074B0646187814460D465F
:10B4C000002801D100F08EF922462946304600F0CE
:10B4D00003F870BDDC31002070B50E4618214843DA
:10B4E000134914464518E86A1835002804D0012885
:10B4F0000FD0022805D113E0284600F0A9F9A04298
:10B5000001D2002411E022463146284600F0CBFA51
:10B510000BE0284600F09CF9A042F4D20446F2E782
:10B520003146284600F08FFA0446204670BD0000E0
:10B53000DC310020F7B598B007A802904020002524
:10B540000495039018980C46059506902178641C84
:10B55000002977D0252907D002A800F055FA0598D0
:10B560000028F3DA1BB0F0BD0122002102271346A8
:10B570000826207823281BD02B2816D02D2802D06F
:10B58000302806D101E0194300E03943641C002A49
:10B59000EFD1002220780346303B0A2B0AD20A233F
:10B5A0005A431218303A641CF4E704200143EDE7D3
:10B5B0003143EBE70023C7B22E2F0AD1641C207859
:10B5C0000746303F0A2F04D20A277B431B18303B23
:10B5D000F4E76C280DD068280BD0702852D00BDC13
:10B5E00025285AD058282ED063280CD0642858D14A
:10B5F00010E02078641CECE7732832D0752817D04F
:10B6000078284ED11FE01A981A9A0068011D11601F
:10B61000017843E01A981A9F0068061D3E60006892
:10B620000191009201460A2202A800F01CF938E0BC
:10B630001A981A9F0068061D3E60006800920191EA
:10B640000A2209E02FE01A981A9F0068061D3E6042
:10B650000068009201911022014602A800F068F9EA
:10B660001FE01A981A9A0068011D11600668317867
:10B67000761C002915D002A800F0C6F9059800280C
:10B68000F5DA0EE01A981A9A00680823011D116075
:10B690000168102200960195DFE7252102A800F03D
:10B6A000B3F9641C5BE70598002800DC5AE70498AE
:10B6B000002804D0024607A91898FFF7FBFE04995A
:10B6C0000598401805904DE770B5FF210B480931EA
:10B6D000094C00254550214604F056FB002809D1AD
:10B6E000A07EFF2801D003F09DFB657625712168BF
:10B6F000201D884770BD0000042900200030004054
:10B7000010B50249024802F0B5FC10BD2429002002
:10B710000040004010B504F087FA10BD10B506488F
:10B720004068002805D08047002801D000F0C4FC04
:10B7300010BD02F065FC10BDE420002010B502F041
:10B74000FDFC002805D01F491D484860C8131E494C
:10B7500088611E48018CC9B201290BD1828C120765
:10B7600008D1028D1206120F042A03D1828D12060F
:10B77000120F0AD0012921D1818C09071ED1018D18
:10B780000906090F0A2904D007E0114A0121916036
:10B79000F5E7828D1206120F05D00D290ED1808D8E
:10B7A0000006000F0AD10B480168012904D00A499C
:10B7B000016001680129FCD1C021416110BD000078
:10B7C000DFFF07C000050040006C0040C00F00F024
:10B7D0000006004000EC06407593000010B504F030
:10B7E00047FC10BD10B5124C02202061606111A011
:10B7F000A0611348E0610120800220620020A06265
:10B8000060620CA1A1642146E0621039E16410215C
:10B810002165A0656065E0650AA1E01DFFF706FDF2
:10B8200009A12046FFF702FD2020A07110BD0000F5
:10B83000DC3100205465726D696E616C000000009F
:10B84000CC2D002052545400534547474552000028
:10B850000269C1688A4203D88068401A801800E0F3
:10B86000501A401E7047FFB583B00E4670420D9FC0
:10B870000C9C0090002900DB0846012502E0FFF740
:10B880007BFC6D1C05998842F9DA0698A84200D91C
:10B890000546002C04D0002E01DB780700D5641E7D
:10B8A000B80702D50698002810D0F8070ED1002C52
:10B8B0000CD0A5420AD22021641E039800F0A4F8FF
:10B8C0000398C0680028F2DA07B0F0BD0398C0689A
:10B8D0000028F9DB002E02DA2D21009E02E0780715
:10B8E00007D52B21039800F08FF80398C068002833
:10B8F000EADBB807800F022810D1069800280DD186
:10B90000002C0BD0A54209D23021641E039800F010
:10B910007BF80398C0680028F2DAD5E70197009415
:10B920003146069B059A039800F002F8CCE7000028
:10B93000FFB581B001261F4634460A9D029802E0F9
:10B94000FFF704FC641C03998842F9D2A74200D98E
:10B950003C460B98C00718D1002D16D00B988007D5
:10B9600001D5002F02D0202000900CE03020FBE712
:10B970006D1E0099019800F047F80198C0680028F2
:10B980003DDB002D01D0AC42F2D30198C068002805
:10B9900035DB012F01D97F1E06E031460298FFF703
:10B9A000D5FB0399884202D303984643F1E7154F2C
:10B9B00031460298FFF7CAFB0146029A7143511AB9
:10B9C0000291395C019800F01FF80198C0680028C6
:10B9D00005DB30460399FFF7B9FB0600E8D10B9869
:10B9E000C0070CD0002D0AD0AC4208D220216D1E19
:10B9F000019800F009F80198C0680028F2DA05B053
:10BA0000F0BD00002C04020010B504468068636895
:10BA1000421C934205D323681954A260E068401C7D
:10BA2000E060A2686068824209D121682069FFF75E
:10BA300041FDA168884203D00020C043E06010BDF2
:10BA40000020A06010BDF7B5064682B0002000902F
:10BA5000F46817463069A04201D9051B02E0B168BD
:10BA6000201A0D1AB0686D1E001BA84200D80546AA
:10BA7000BD4200D33D4670682A4600190399FFF77E
:10BA80008FFB00987F1B40190090039864194019A0
:10BA90000390B068A04200D10024F460002FD9D1F7
:10BAA000009805B0F0BDF7B5C66817460446806833
:10BAB000851B6068BD4206D980190199FFF770FBAC
:10BAC000F019E060FEBD2A4680190199FFF768FB76
:10BAD00001987E1B411932466068FFF761FBE66002
:10BAE000FEBD02E008C8121F08C1002AFAD1704743
:10BAF0007047002001E001C1121F002AFBD17047EE
:10BB00001FB5202168460173012141730021817313
:10BB1000032201AB03A90948009203F0F1F80120C8
:10BB200002F024FF68468279522A04D004A1002042
:10BB300002F06EFC1FBD0AA1F9E70000A403020099
:10BB4000436865636B20494420286E6F74206D61E3
:10BB5000746368293A2030782578200D0A000000A7
:10BB6000436865636B20494420286D6174636829CC
:10BB70003A2030782578200D0A000000F8B50E270D
:10BB800000250C243846009702F030FE0646384661
:10BB900002F02CFE074641210020705578556D1C9F
:10BBA000009AEDB29542F8D33170601E70700F4963
:10BBB00000200A5C3318401CC0B29A70A042F8D32F
:10BBC000A21C3B4631460A48009203F099F80A202D
:10BBD00002F0CCFE07A1002002F01AFC384602F069
:10BBE00035F8304602F032F8F8BD0000F61F0020AC
:10BBF000A403020020506F7765722D6F6E2072656E
:10BC000073657420616E6420696E697469616C6922
:10BC10007A6174696F6E2070726F636564757265A6
:10BC20002E2E0D0A0000000010B501200549000469
:10BC3000C8600A2002F09AFE03A1002002F0E8FB8F
:10BC400010BD0000000500502041445320504F57C4
:10BC50004552454420444F574E2E2E0D0A000000F9
:10BC600010B501200549000488607D20C00002F065
:10BC70007DFE03A1002002F0CBFB10BD00050050AB
:10BC80002041445320504F57455245442055502E93
:10BC90002E2E0D0A000000000EB50820694608711E
:10BCA00001200246009002AB01A9044803F028F8E5
:10BCB00003A1002002F0ACFB0EBD0000A4030200B3
:10BCC0002053746172742041444320636F6E766523
:10BCD0007273696F6E2E2E0D0A0000000EB50420DF
:10BCE0006946087101200246009002AB01A9044890
:10BCF00003F006F803A1002002F08AFB0EBD00004D
:10BD0000A403020020414453313239312D322070D6
:10BD10006C6163656420696E207374616E6462791E
:10BD2000206D6F64652E2E2E0D0A00000EB51020BA
:10BD30006946087101200246009002AB01A904483F
:10BD400002F0DEFF03A1002002F062FB0EBD000046
:10BD5000A403020020436F6E74696E756F757320C3
:10BD600044617461204F757470757420456E616212
:10BD70006C65642E2E0D0A000EB5112069460871FF
:10BD800001200246009002AB01A9044802F0B8FF6E
:10BD900003A1002002F03CFB0EBD0000A403020042
:10BDA00020436F6E74696E756F75732044617461A2
:10BDB000204F75747075742044697361626C65649A
:10BDC0002E2E0D0A000000000EB5022069460871F3
:10BDD00001200246009002AB01A9054802F090FF45
:10BDE0000A2002F0C3FD03A1002002F011FB0EBDEA
:10BDF000A403020020414453313239312D322057FF
:10BE0000616B6575702E2E0D0A0000001FB5154A76
:10BE1000D1689068526903920191009000216846B0
:10BE2000417301200007029003216846017101213E
:10BE300001730C2181700D2101700E2141700F21C1
:10BE4000C17055214171084A6946064802F0C8FE92
:10BE5000002801D000F030F904A1002002F0D8FA47
:10BE60001FBD0000A403020059F9010020535049EE
:10BE700020496E697469616C697A65642E2E0D0AB9
:10BE800000000000F7B584B000251688074615802D
:10BE9000406B1446002813D003780598032E51D325
:10BEA0000221017021881122491C89B2218042544B
:10BEB0002188491C89B2218043542088401C20805D
:10BEC000386B00281DD0054620880599024612329D
:10BED000B24237D811220A5420881022401C80B266
:10BEE00020800A542088401C20800F202A5C238850
:10BEF000401ECA54228840B2521C22800028F5DA23
:10BF00000025384620300290807B002806D033463A
:10BF10002246059902F05EF9050014D10298407B93
:10BF2000002806D032462146059800F05BFC05004B
:10BF300009D1B878002823D0059886462088001DAE
:10BF4000B04202D90C2007B0F0BD684679DF002866
:10BF5000F9D1218803207246505420881921401CB1
:10BF600080B22080115420887146401C80B220800D
:10BF700041186846008804F00FF921884018208095
:10BF8000F878002817D0218803230A46FB56C91CDD
:10BF90000598B142D6D80221815421880122491C3A
:10BFA00089B2218042542188491C89B2218043549E
:10BFB0002088401C20807868002817D02188002322
:10BFC000C3560A46C91C0598B142BBD80221815408
:10BFD00021880A22491C89B2218042542188491CA7
:10BFE00089B2218043542088401C20803889002851
:10BFF0000AD0009438460196062202210830059B9B
:10C0000004F049F905009ED1388A00280AD000942E
:10C0100038460196072203211030059B04F03BF9B6
:10C02000050090D1388B00280AD00094384601963C
:10C03000152214211830059B04F02DF9050082D13A
:10C04000386A002806D033462246059900F09EFF44
:10C050000500D8D1786A002806D0334622460599D3
:10C0600002F0FAFB0500CED10298007B002807D031
:10C07000334622463846059903F0FEFA0500C2D140
:10C080003878002807D0334622463846059902F012
:10C0900018FC0500B7D1284655E70000BFF34F8FC5
:10C0A00004490348C860BFF34F8F00BFFDE700009D
:10C0B0000400FA0500ED00E00EB5002102900091A9
:10C0C0006A4601910148FFF7E9FF0EBD01400000FB
:10C0D000014B1B68184700000826002038B50C46A5
:10C0E000A2680C235A43064B09789D58054A126AE8
:10C0F00000920246204608302369A84738BD000058
:10C10000EC2800209C20002010B5064914230A7852
:10C110005A435118091DFFF7E1FF042003F02AFBE1
:10C1200010BD000090260020094B9B68002B07D013
:10C13000002A07D0002805D00068037C002B03D01C
:10C140000820704707207047417442610020704703
:10C15000C0200020FFB59007002581B014460E4690
:10C16000002832D11B4F002C31D003F0ADF90498D8
:10C1700078610320387033461821224600204B4353
:10C18000BC601834C10089180D704D708E704C6001
:10C190001C19401C0328F5DBFD607D7001240E484E
:10C1A000BD702405046003211420FFF705F90B4836
:10C1B00004600B4C0198A06003211120FFF7FCF8EC
:10C1C00060683861002005B0F0BD0720FBE7BD6066
:10C1D000FBE70000C020002080E200E000E100E07A
:10C1E00000150140FEB50D461B49174689680446F7
:10C1F00000292AD0002C28D0052D01D20720FEBD11
:10C200006069002821D0607C012820D0002604F03D
:10C2100005F8C0001049019089684018694604F08B
:10C2200027F8002815D0012101700C4944604968A5
:10C230000830E2C0084901988968411868460078CA
:10C24000487003F033FD0020FEBD0820FEBD2E46E1
:10C25000DDE70420FEBD0000C020002000150140E5
:10C26000F8B5134D0446A96800291CD0002C1AD03B
:10C270006069002817D00026267403F0CFFFC7009E
:10C28000A8686946381803F0F3FF00280DD0022192
:10C2900001704460A868391868460078487003F057
:10C2A00005FD3046F8BD0820F8BD0420F8BD0000AB
:10C2B000C0200020F0B50C4693B01F216A461180C3
:10C2C000072600279180002809D0C17849070DD59D
:10C2D00002A9FFF7D7FD002809D102AD01E0002532
:10C2E0001780002C0ED0E078002802D0304613B022
:10C2F000F0BD01AA0AA92046FFF7C4FD0028F6D127
:10C300000AAA02E068460022878068468088C3B295
:10C3100068460088C1B2284672DFE8E770B50D466E
:10C3200004991646040042D0002E40D04248002214
:10C330004271C3600161242231464048FEF730FF5C
:10C3400000F0D4F83D4934310846103801602031FE
:10C35000816038215C38FEF74AFF38482178383848
:10C360000170A1788170E178C17061784170626973
:10C37000216942610161E268A168C2608160014691
:10C38000E369A269CB618A61616A002919D001461B
:10C39000AC310246B83241628A60636A1B880B8006
:10C3A000616A436A898899800021436A06E00E2009
:10C3B00070BD666AB668765C5654491C9E888E428B
:10C3C000F7D8A16A00291CD01C4AAC3211460C399E
:10C3D0008A608162A36A9B888B80A16A836A0988CC
:10C3E00019800021836A04E0A66AB668765C565418
:10C3F000491C9E888E42F7D82C210A5D0F491839B6
:10C400000A73216A002909D00B4914310162226A9A
:10C4100052884A80216A026A09881180616800296D
:10C4200004D00549891D416061684160034829467F
:10C430003838FFF73FFF70BD04200020D4230020D0
:10C4400010B502881C4C102A17D00021112A1AD0CE
:10C450001B2A11D1007A00280ED1607901281ED044
:10C46000022822D0032822D0042805D12171E268B5
:10C470000846002A00D0904710BD817D0129FBD1DC
:10C480008088208110BD6170808821898842F9D11F
:10C49000012005E021690029F4D0884710BD022061
:10C4A00000F02CF80028F5D110BD0320F8E7032098
:10C4B00020710420F4E700000420002010B50228B9
:10C4C00001D003280ED1084C207800280AD0002083
:10C4D0002070607900F012F8002803D0216900294B
:10C4E00000D0884710BD00000420002010B50721AF
:10C4F0000148FEF77CFE10BD1C200020F0B5784CF2
:10C5000087B06071002606A8069602F08DFD01270F
:10C51000082802D0002808D104E006A801F0C0FBDA
:10C52000002804D10698002801D02770D4E0FFF736
:10C53000DDFF6C4D6878002802D06079012807D0B3
:10C54000A87800280CD06079012801D0022824D1D5
:10C55000E168002903D0E7700820884700E0E67012
:10C560006079012808D16878002809D05C48193022
:10C5700002F0FAFC002803D06079022802D00CE017
:10C5800002206071A878002805D05548193002F0C3
:10C59000EBFC002801D103206071287B002804D126
:10C5A0006079032801D104206071287E002804D11D
:10C5B0006079042801D166712671E16800290AD0EA
:10C5C0006079032801D0042805D12878002802D0FA
:10C5D0006078002817D0A67018216846FEF707FE7D
:10C5E00068460670019606720396607901280ED09F
:10C5F000022815D03B4E243637465C3F03281BD01B
:10C6000004285DD13AE0A77007208847E4E7344862
:10C61000183001906846077046820682277152E002
:10C620002F48183001906846077029894182A988EF
:10C6300001820220207146E0A88A69464882288A41
:10C6400008822848243003F095FE002805D0287879
:10C65000002802D06078002801D003202FE00220BB
:10C660006946087204200396F8701E480021383885
:10C67000FFF720FE002830D1052020E0A88B694676
:10C680000882288C48821748243003F073FE002863
:10C6900005D02878002802D06078002801D0042036
:10C6A0000DE002206946087204200396F8700D48D8
:10C6B00000213838FFF7FEFD00280ED1062020713A
:10C6C0006079002803D0684673DF002805D1E1684F
:10C6D000002901D020798847002007B0F0BD000074
:10C6E00004200020D42300200A88102A05D0112A13
:10C6F00002D10021C943018070478988FBE700000F
:10C7000070B5054601461C220E48FEF749FD0E4C49
:10C71000002626702968002906D00822201DFEF771
:10C720003FFD201D7ADF02E00748001D7BDF002867
:10C7300007D1401E60806670044A00210448FFF75C
:10C74000F3FC70BDC024002024200020B9010200A9
:10C75000BC030200F8B5214C028800271E4DE68973
:10C76000102A15D01E49112A21D0122A2DD0502A64
:10C770001CD1C288801DB24218D14289022A15D12B
:10C78000427B037B10021843C007C00F0CD112E09C
:10C790008188698001461048082218310C30FEF764
:10C7A000FFFC6F70002E01D100F038FCF8BD0020B6
:10C7B000C04368806F700868FFF752FD0028F5D00D
:10C7C000A1690029F2D08847F8BD082281180248E3
:10C7D0000C30FEF7E5FCE7E724200020C024002011
:10C7E000BC0302007CB5054608880C46093090421F
:10C7F00001D90C207CBD684671DF0028FAD1218860
:10C800000820685420881B21401C80B220802954B5
:10C81000208800A9401C80B22080401906220131E6
:10C82000FEF7BEFC20886946801D80B22080097812
:10C83000002900D0012129542088401C208000209C
:10C840007CBD00007FB504460121684681714A49DC
:10C8500081804A4A01A90120A0DF00287ED12288D8
:10C8600025463C35002A09D044482B46801C0090C0
:10C870004348616800F0E4F900287BD12289002A4E
:10C880000AD03E482B460A3000903D48E168401FE0
:10C8900000F0D6F900286DD1228A002A0AD0374844
:10C8A0002B461230009036486169001F00F0C8F92D
:10C8B00000285FD1228B002A0AD030482B461A303C
:10C8C00000902F48E169801E00F0BAF9002851D18C
:10C8D000228C002A0AD029482B4622300090284872
:10C8E000616AC01E00F0ACF9002843D1228D002AF5
:10C8F0000AD022482B462A3000902148E16A401E87
:10C9000000F09EF9002835D1216B00290ED002A835
:10C9100003F054F919482B46323000901848082289
:10C9200002A9801F00F08CF9002823D1606B002839
:10C930000BD012492B463A31009102790168104818
:10C94000401C00F07DF9002814D1A16B002910D003
:10C9500002A802F04DFB0948423000E00AE00090D6
:10C9600007482B46072202A9273000F069F9002862
:10C9700000D1002004B070BD0A1800005020002033
:10C98000292A000010B5124B04460FCB86B0039342
:10C990006B4607C30F48694608821231684663DF59
:10C9A000002801D0FFF788FB0020C0432080A21C94
:10C9B00004A90120A0DF002801D0FFF77DFB20465D
:10C9C00001F08EF8204601F0E5F806B010BD000039
:10C9D00094030200F044000070B588B000250E46B4
:10C9E0000446092168460495018245820596A1887E
:10C9F000208804AAA4DF20880B49884211D009218D
:10CA0000684601830095019502950395A1880180F0
:10CA100001218170858006A80396029020886946CE
:10CA2000A6DF08B070BD0000FFFF000070B588B041
:10CA300000250E4604460921684604950182458278
:10CA40000596A189208804AAA4DF20880B49884282
:10CA500011D009216846018300950195029503953F
:10CA6000A189018001218170858006A8039602902A
:10CA700020886946A6DF08B070BD0000FFFF0000F7
:10CA800010B5044600F060FC2046FFF763FE204628
:10CA900002F0F6F92046FFF7D3FC21460148FFF7E4
:10CAA00023FE10BD5C23002070B504460D460846E9
:10CAB000FEF7A8FB2080656070BD000000B51A4835
:10CAC00087B08068059000234822184905A802F025
:10CAD00017FF002801D0FFF7EFFA6A460121002076
:10CAE00002F0F6FE002801D0FFF7E6FA104802F047
:10CAF00037FD002801D0FFF7DFFA684602F068FE34
:10CB0000002801D0FFF7D8FA0A4802F057FE0028A3
:10CB100001D0FFF7D1FA084802F014FF002801D035
:10CB2000FFF7CAFA07B000BD8403020014230020F7
:10CB3000E81F002081CA0100ADFB01001CB50446BE
:10CB400081786A460C4802F083FA002812D1607896
:10CB50001C21484309491C2340181A46694602F023
:10CB60003DFB064806494C30807A80000A58214631
:10CB7000684690471CBD000048200020BC250020CE
:10CB8000D403020070B5002506462C46203615E079
:10CB9000AB1C142B09D9D1B2091B4A00610009183A
:10CBA00014301431FEF7FCFA0BE062001218928A7E
:10CBB0004D192A70120A6A70DDB2641C327FA242DB
:10CBC000E6DC307F001B3077284670BD0022D24360
:10CBD000830004490428CA5002D308182030027781
:10CBE000704700002C260020F0B50025ED43002AF8
:10CBF00002D00023042601E0042308260B4C04E0A5
:10CC00009F00E7597F1C04D05B1CB342F8D3284631
:10CC1000F0BD26185DB2203635709E00A151002A65
:10CC2000F5D1E11820310877F1E700002C2600202B
:10CC30000249091820200856704700002C260020C1
:10CC4000FFB58FB01E4615460F0002D10020FFF73A
:10CC500033FA002D02D10020FFF72EFA1C2168467E
:10CC6000FEF7C5FA68460178022001436846017064
:10CC700000240194039404940594012108A80694C7
:10CC8000817068460F990184079431780177717833
:10CC90004177807FF9210840F721801C0840EF216F
:10CCA00008404108490068468177142109A8FEF729
:10CCB0009EFA08A8099007A80A9068468585C48549
:10CCC000058604480D9709AA69460088189BA2DFCB
:10CCD00013B0F0BD50200020F8B53E481422017872
:10CCE00051430C18E0680C2148433B492769401820
:10CCF000058941890091241D466802F03BFA0146EE
:10CD00003846FEF723FA002932D000200099A28885
:10CD10004D436188AE198918CD1900222F4900288A
:10CD20000A6109D002F026FA6188884222D0B54211
:10CD300002D1A08800281DD0A06803281AD002F0D4
:10CD400019FAA188CA1901461046FEF7FFF9234CCB
:10CD50008808E06002F00EFA01462846FEF7F6F970
:10CD6000002911D00020B5422FD000280ED02CE091
:10CD70000120CBE702F0FEF901463846FEF7E6F95E
:10CD800016494861032021E00120ECE7ADB2B7B2BB
:10CD900002F0F0F901463846FEF7D8F9064602F0EF
:10CDA000E9F901462846FEF7D1F9864201D1781B00
:10CDB00009E002F0DFF9064602F0DCF901462846F8
:10CDC000FEF7C4F9701A80082061022002F0D2FC3C
:10CDD000F8BD000090260020EC2800209C200020B8
:10CDE00010B5074814220178514308180079042827
:10CDF00002D000F059F810BD012002F0BBFC10BDBC
:10CE00009026002010B50B481422017851430818D1
:10CE1000094AC18811620079012806D0032801D08F
:10CE2000042801D1FFF758FF10BD012002F0A2FC39
:10CE300010BD0000902600209C20002014225043AA
:10CE4000054A002180180171C18002220161C2607F
:10CE5000416101817047000090260020F8B5104C18
:10CE6000069E65781E2D19D027787D191E2D00D3BA
:10CE70001E3D14277D432D1928716A6103C929615C
:10CE8000E860EB802E816078401C60700548007877
:10CE9000002801D1FFF7B6FF0020F8BD0420F8BD3F
:10CEA000902600209C20002010B50D4C14212078E5
:10CEB000484301190020091DFFF710F92078FFF7FA
:10CEC000BDFF6078401E60702078401CC0B22070AA
:10CED0001E2801D100202070002002F04BFC10BD64
:10CEE00090260020F8B52348C16800293ED00E687E
:10CEF00021494C680769C078E11B0D022D0AED1C21
:10CF0000002814D101201D4A000450601B4A403AF9
:10CF100050601B49400008601A4908601A49012006
:10CF200008602F20FEF7E6F812490120C870B542CC
:10CF300000D23546E81900020F4B000A4033186052
:10CF40000D4A5168001B091B0902090A0002000A68
:10CF5000C91C814209D9506818602F20FEF7CAF811
:10CF600001200749400480390860F8BD02F0ACFA9E
:10CF7000F8BD0000C0200020001501404013014012
:10CF800080E200E000E100E000100140F8B5064654
:10CF9000108814468446801D0D46984201D90C2005
:10CFA000F8BD32880720062AFAD31927FF01184B4B
:10CFB000BA4201D99A42F3D171880629F0D3B94215
:10CFC00001D99942ECD19A4203D0994201D08A42C8
:10CFD000E6D805216046295420881221401C80B2E1
:10CFE000208029542088401C80B22080411930883C
:10CFF00003F0D2F82188401880B22080411970884F
:10D0000003F0CAF82188401820800020F8BD0000F5
:10D01000FFFF000010B5FFF74FF810BDF8B5164838
:10D0200001F07EF8144D00260C3D144C002807D06A
:10D03000616900291CD001206A461070684616E01C
:10D040002878002805D06169002911D0684606704B
:10D050000DE0687800280DD0A1680948002200681A
:10D06000FFF7C0F8002803D0A169002900D0884745
:10D070002E70F8BD6168F0E730200020C024002049
:10D08000BC03020070B5094B04469E7A08200025B7
:10D090000E4207D00648844202D01889A04202D12D
:10D0A0000020156070BD052070BD0000FC2500202B
:10D0B000FFFF00000C214843064910B5012240182B
:10D0C0008272911E0181FF21C1720721FEF78FF844
:10D0D00010BD0000FC25002010B5134C207900077E
:10D0E0001FD46069401C6061E068002801D0042002
:10D0F00004E001F047F8002803D0022002F04CFDC4
:10D1000010BD2069002809D06068C10701D0032044
:10D11000F4E70121084360600020EFE7FFF760FEBD
:10D1200010BD02F02DFD10BD9C20002010B5084858
:10D1300041680A0708D48A0702D5012211434160D9
:10D14000022002F029FD10BD02F01AFD10BD000002
:10D150009C200020FEB50E46044681786A4623488E
:10D1600001F076FF002826D160780C21204F48433B
:10D17000C019807A40061FD4022E1DD0012E1DD06A
:10D180001C4DA0781C2148431B49002341181C2238
:10D190006846A847002813D0022E0CD020780C2116
:10D1A000484313490C314018807A144980000A58CA
:10D1B000214668469047FEBD114DE2E7114DE0E77C
:10D1C000022EF8D060780C214843C019817ABF2222
:10D1D0001140817260781C2148430549403941184B
:10D1E0001C231A466846A847D8E7000048200020BC
:10D1F000FC25002005FB0100F8240020C4030200E8
:10D2000025F4010045F3010070B50546114A1248A6
:10D2100000241C2363431B189B7EFF2B04D0641C3B
:10D22000072CF6D3104670BD0A78022A09D01C22BA
:10D2300062431018FD22827607221030FDF7B0FFFE
:10D2400004E01C2161430818FE2181762C70002225
:10D25000E8E7000043800000F8240020F7B505252A
:10D260000F4F06460024002E0AD01C206043C01930
:10D27000072231461030FDF7CCFF002807D00AE026
:10D280001C206043C019018B0298814203D1019890
:10D290000025046002E0641C072CE4D32846FEBD90
:10D2A000F82400207CB5054681B26A46074801F0A3
:10D2B000CFFE040008D17421684601F0F5FE040099
:10D2C00002D1284601F05CFE20467CBD48200020AB
:10D2D00010B5100001D0FEF7EFFE002010BD0000D9
:10D2E0001FB56946087301F04BFF002801D0FEF717
:10D2F000E3FE03A800F01AFA002801D0FEF7DCFED6
:10D3000001A805210130FDF772FF69464979012026
:10D3100001438122114030314A06520E69464A715A
:10D3200007228A711022CA71054900916946087165
:10D33000044800F021FB002801D0FEF7BDFE1FBD10
:10D34000D1D20100EA1F0020F0B591B00546FF24BC
:10D35000002007940290E9480078002849D0E84F5F
:10D360003868002845D001A800F0D2F9002801D083
:10D37000FEF7A2FE281D05902C2069460883FF2099
:10D38000002688710E710396DD4C28880C3C10280D
:10D390000ED0A88803AA0221FFF774FE002807D147
:10D3A00003980C2141430919CA7A69468A71487168
:10D3B0002A881320192A7DD00FDC102A1BD0112AAD
:10D3C00055D0132A77D0142A13D103980C2148433F
:10D3D0000019C07AFF286FD0A1E0CA491A2A6CD080
:10D3E0001E2A65D0522A04D1B87A8000095801A8B3
:10D3F000884711B0F0BDC44F03AA01213846FFF79A
:10D4000041FE0028F5D103990C204843022200195F
:10D41000827211236A4613745171A98801812946C9
:10D42000083107220091FDF7BBFEE87DC10707D058
:10D430004108B2480830405CFF2808D0079006E059
:10D440003A4607A90098FFF709FF002837D103994A
:10D450000C22514309190798C8728A7A08231A4383
:10D460008A726946887101A8FFF768FB27E0039874
:10D470000C2148430119887AFD2210408872010767
:10D4800006D5C0090DD0002101A8FFF763FE08E012
:10D4900068468079FF2804D001F072FDFF206946BC
:10D4A000887103980C2250431021001981721220B8
:10D4B000694603E08BE043E014E0E4E008743246A0
:10D4C00004A901A8FEF704FE6846007C122890D14A
:10D4D00003980C2141430919897A012989D0FFF762
:10D4E000E9FD86E72A8A07A90020FFF7B7FE002892
:10D4F0000ED103990C22514309190798C8728A7AF0
:10D5000008231A438A726946887101A8FFF716FB3F
:10D5100003980C2148430019C07AFF2806D00398CD
:10D520001C21484376494C394018029003981C212D
:10D53000484376494218A8880023029986DF58E7B5
:10D540006946087403980C2148430119887A04221B
:10D5500010438872CA7AFF2A0BD040221043887287
:10D560001620694608740023A8881A4685217FDFA3
:10D5700021E007A8FFF748FE00281FD0064600203C
:10D580000D9003990C224A431219D27A1C235A4354
:10D590005E4B0F90D2180E921C2251431A46C43291
:10D5A0008918109009910A900B900C903A1DA88848
:10D5B00009AB00217FDF002893D180E769460798F7
:10D5C000887103990C2251430919C872D7E7787AF8
:10D5D0000C2140084000787203986F460246484389
:10D5E000011984468B7AFB2003408B721420387417
:10D5F000287A002806D05806DFD4C87AFFF752FEF2
:10D600002E7A5CE7687A4007D7D5B879FF28D4D05E
:10D6100008273B438B726B7B9B0708D51C25034671
:10D620006B433A4D5B199D7E6D086D009D76CB7AFC
:10D63000FF2BC2D06346E35C022B10D01C22504368
:10D64000324D072240191030FDF7AAFD6846807957
:10D650001C2148434019817EFD2211400DE01C2110
:10D660004A4327494C3951184A8A1C2148432749C3
:10D6700040180283817E490849008176012101A872
:10D68000FFF768FD1BE7287A0209012A23D100076A
:10D69000000F01281FD103980C2242431219927ADD
:10D6A000120718D5242148431549303940181A214A
:10D6B0000830FDF79CFD16206946087403980C217C
:10D6C00048430119887A602210438872787A0221CF
:10D6D000084378720FE003980C2250430019827AB5
:10D6E00080231A43827215206A461074B87A80002B
:10D6F000095801A888470026E1E6000038200020EC
:10D7000008260020E4030200FFFF0000F8240020A8
:10D71000002806D0FF21017041708170C170002087
:10D7200070470148704700000E800000F0B585B0DA
:10D73000040036D0294800250560457285722846C8
:10D74000FFF7B8FC254824213038FDF750FD0026AE
:10D75000FF27304601F014FC21488755761C072E20
:10D76000F7D37421684681800721C1801D481C4978
:10D7700000900831684601F087FD00280FD1184E4F
:10D780000120083E3070207800280CD06946888837
:10D79000C988484381B23046103001F085FC05B09D
:10D7A000F0BD1148FBE7114F00240D48A1B202AAB9
:10D7B000083001F04DFC002809D11C206043C0193D
:10D7C00000231C2202A901F009FD002801D03570B8
:10D7D000E5E7641C072CE8D3E1E7000008260020F9
:10D7E00040200020F1D701000E800000F824002026
:10D7F000FFB55C4891B000681A9F1E46002873D0A0
:10D80000742F71D86846FFF783FF002801D0FEF718
:10D8100053FC00246846047004712546059706965B
:10D82000A9B20FAA504801F013FC002806D1082223
:10D830000FA91198FDF7EDFC002817D06D1C072DDE
:10D84000EED368468578FF2D4ED01298032810D06D
:10D8500046481C21301AFDF779FC012707281ED203
:10D8600004A80290139800280BD011E06846857038
:10D87000E7E7742F03D04020694608716BE0202051
:10D88000FAE738463849A84010394968084260D05C
:10D89000284602F087FC20206946087149E031489B
:10D8A0001C214C38301AFDF751FC00281DD02D48A2
:10D8B00024213038301AFDF749FC01002C482BD0C8
:10D8C00040216A4611712B498E4244D0274AA90053
:10D8D0001C3A5158B1423CD104A90291C07A854208
:10D8E00027D16846447024E033E004A80290202049
:10D8F000694608714C701B490B940C310C915839D6
:10D900000791694689781C225143184A0590891865
:10D91000089107A906910CE0302269460A714C7003
:10D92000CF70807A800704D4114824212438FDF771
:10D930005EFC129869460228087910D0022108433B
:10D940006946087104A8029001A96846139AFEF777
:10D95000BFFB15B0F0BD694608790321EFE73843F6
:10D96000EFE700000826002048200020F8240020CF
:10D97000FC250020C003020070B5064618480D467D
:10D98000007800280ED01749002E0ED0002D0CD0A4
:10D990002868002809D0144C2168002907D01148B4
:10D9A0000A3870BD0F48801F70BD084670BD2060EA
:10D9B0000522691D201DFDF7F3FB2879A072207A4E
:10D9C0000221400840000843FB2210402072E07909
:10D9D0000123184308431040E0710020307070BDEF
:10D9E000382000200E8000000826002010B50E49C7
:10D9F00000234A788C78A24212D0521CD2B24A70CC
:10DA0000022A00D14B704A78074B920018339A587B
:10DA10000260086910180002000A0861012010BDA8
:10DA20000360002010BD0000C020002010B50028B9
:10DA300003D0112802D0FEF767FB10BD0248082270
:10DA400041681143416010BD9C20002010B51C4C62
:10DA5000217820464068012906D0022929D00329CF
:10DA600012D1000717D513E0000711D4154814226E
:10DA7000017851430818C188A28B891A0904090C3E
:10DA8000C18002D002F040F810BDFFF70DFA10BDC2
:10DA900000F0A0FE10BD6069401C606100F072FBE8
:10DAA000002803D0207801F065FE10BDFFF798F93B
:10DAB00010BD6078044980000858804710BD000000
:10DAC0009C200020902600200804020010B528DFCA
:10DAD000FFF7ACFF10BD10B529DFFFF7A7FF10BDA2
:10DAE00070B594B0012608A904468E762848694688
:10DAF00008871C2106A8FDF77AFB6946087E0221EB
:10DB00000843F721084001210A4608A910320A7586
:10DB100001210A4608A910324A758B7DF92213406B
:10DB20009B1C8B750DA90B91102108436946087643
:10DB300000250595887D1040801C30438875681C41
:10DB40000007000F10300875681C0007000F103028
:10DB5000487514216846FDF74AFB0EA8009005A8F9
:10DB600001900FA92046FFF70DF86946088114209F
:10DB70004D8188810FA804906088231D6A4606A9FC
:10DB8000A2DF002801D0FEF797FA002014B070BD84
:10DB9000F144000070B594B0012608A904468E76C1
:10DBA0002948694608871C2106A8FDF720FB69461D
:10DBB000087E02210843F721084001210A4608A9EE
:10DBC00010320A7501210A4608A910324A758B7D68
:10DBD000F92213409B1C8B750DA90B911021084352
:10DBE0006946087600250595887D1040801C3043E5
:10DBF0008875681C0007000F10300875681C000746
:10DC0000000F1030487514216846FDF7F0FA0EA891
:10DC1000009005A801900FA92046FEF7B3FF6946C2
:10DC2000088114204D8188810FA8049023466088C4
:10DC30000C336A4606A9A2DF002801D0FEF73CFAA1
:10DC4000002014B070BD0000F244000010B50028A0
:10DC500023D0124B0022001F196803E0814203D831
:10DC60000A4649680029F9D1002A0AD01368841AA3
:10DC70009C4204D1006818181060104602E0506001
:10DC800000E01860002907D002680B1A934203D104
:10DC90000B68D21802604968416010BD0421002061
:10DCA000002804D00349496D01600020704703201B
:10DCB000704700005829002000207047002070475E
:10DCC00000207047F8B506464078242104464C43AE
:10DCD00024490C2250436118224A00254B68243203
:10DCE0008018AE462F469C46002B0CD0827A1346F5
:10DCF000D20908D05A0606D40D461A4A614689B29E
:10DD0000175908358E46174C008924343B46724615
:10DD10002946A9DF0B2819D0002800D01248012F6E
:10DD200013D170780C214843001900890F4AA7DFEE
:10DD300000280AD00E49884212D0082810D0891C29
:10DD400088420DD011280BD00020F8BD70780C212E
:10DD5000484301230019008972462946A9DFE0E7FC
:10DD60000148F8BDD825002041800000FFFF0000D9
:10DD70000230000070B50C46014660782422084D40
:10DD800050434019382301F029FA002807D161785F
:10DD90002422514349194A68521C00D14A6070BD7F
:10DDA000D8250020F3B589B00D461A20694688832E
:10DDB00068780C2103274843224E3B46801900898E
:10DDC00007AA6946AADF002838D168782421484389
:10DDD000741A001969468A8B0830FDF71AFA002870
:10DDE000687807D0242148430119496800290DD0DB
:10DDF000154E0CE00C2141438919897A89071DD4FD
:10DE0000242148430019FDF7F2F917E00F4E27507F
:10DE10006846828B687824214843001942606878FC
:10DE20004843001969460830FDF7BAF9687824219B
:10DE300048430119382324220998B04700200BB029
:10DE4000F0BD0000FC25002025F4010045F3010091
:10DE500010B5FFF737FF10BD10B5FFF78BFF10BDF2
:10DE600010B5FFF79FFF10BD30B589B00C460546D1
:10DE70000022104604A98854521CD2B2092AFAD3AF
:10DE800008200246009001AB0E4800F039FF002840
:10DE900001D0FEF711F9012000F068FD032201A96D
:10DEA000885C2870521CD2B26D1C062AF8D306205A
:10DEB0000A5C2270401CC0B2641C0928F8D309B067
:10DEC00030BD0000A403020038B500210B2000F093
:10DED00097FF0121102000F093FF00F079FE002849
:10DEE00002D100F04BFE0446224613A1002000F0B0
:10DEF0008FFA200001D0FEF7DFF816490120C9682B
:10DF000000916946C870887000204870124A0B2042
:10DF100000F0E2FD0446024610A1002000F078FA6D
:10DF2000200001D0FEF7C8F801210B2000F084FD8D
:10DF3000FDF77AFE38BD00006E72665F6472765F30
:10DF40006770696F74655F696E69743A2025640D46
:10DF50000A00000084030200F5DF0100206E7266F3
:10DF60005F6472765F6770696F74655F696E5F6921
:10DF70006E69743A2025643A200D0A0070B51B4C76
:10DF8000207900072ED41A481422017851430D1825
:10DF90002E6901F0EFF80146E8882A89761E80187C
:10DFA0008019FDF7D3F821690025002909D061699E
:10DFB000814206D1E560606801210843606000206D
:10DFC0000AE000F0DFF8002802D00220E56003E05C
:10DFD0002069002803D0032001F0DEFD70BDFEF7AC
:10DFE000FFFE70BD01F0CCFD70BD00009C20002044
:10DFF000902600200149012008707047E81F00208A
:10E00000F8B51B4C2078002830D0E06800260028A6
:10E0100009D00025684652DF052806D0002806D022
:10E02000FEF74AF80BE00125F4E7012607E0009827
:10E0300000F0C0FC2169002901D000988847002D1C
:10E0400010D1608869460880A06861DF052804D087
:10E05000002804D0FEF730F804E0012502E0E16872
:10E06000A0688847002ED5D0002DE8D0F8BD00006C
:10E07000E42000207FB50C460D4620350646697821
:10E0800028780191009022462632D11E3046E3695D
:10E0900001F0FFFE002819D1E87800281DD1207B6F
:10E0A000022801D0032818D12269E169914214D1D4
:10E0B0006269E261E37B2B70217E8906C90F69707A
:10E0C000032804D03146204601F086FE7FBD009132
:10E0D0003146204601F060FF7FBD20460C3007C866
:10E0E00001AB07C3E878002100280ED00920C00149
:10E0F0003218506C5064820701D5012002E04007BD
:10E1000005D502206A46107001E068460170297149
:10E11000207E4007E0D422686846616890477FBD52
:10E12000418805480288914204D34088814201D841
:10E130000120704700207047282000201048018CE3
:10E14000C9B2012917D1818C090714D1018D0906A3
:10E150000A0F03D1828D1206120F0ED0090F01296A
:10E1600003D1828D1206120F07D0032903D1808DAF
:10E170000006000F01D0002070470120704700000A
:10E18000C00F00F070B50E481422017851430C18EE
:10E19000256900F0EFFF0146E08822896D1E801896
:10E1A0004019FCF7D3FF07494A69824206D38242ED
:10E1B00002D10869002801D0002070BD012070BD87
:10E1C000902600209C200020800701D0002070476E
:10E1D0000120704730B51588EC1C9C4201D90C20F9
:10E1E00030BD02244C5513881C255B1C9BB2138048
:10E1F000CD5413885B1C9BB21380012807D00228E2
:10E2000007D0032807D0042807D0072030BD0020FE
:10E2100004E0012002E0CC5401E00320C85410883F
:10E22000401C1080002030BDF8B52C49C8680A6930
:10E230000C780F7989688646944600913EE00099F3
:10E24000E20055182A7836E0182353436968521CB7
:10E25000C918AB78D2B2934200D100220B78022BBE
:10E2600002D0032B27D123E04E680346014603E08A
:10E27000B14204D00B46C96900291CD0F8E7002937
:10E2800019D08B4208D1C069002805D1144F01264E
:10E29000BE600026B44601270E68C969D96100290D
:10E2A00009D00B689B190B6005E00174C06900E0A0
:10E2B00000210028F9D169789142C5D12146641E18
:10E2C000E4B20029BBD1054962460A61C8600F71FA
:10E2D000704501D00120F8BD0020F8BDC02000200D
:10E2E00000100140F8B5044631480026C16800918D
:10E2F00007784EE02E48F90080680D1843E0002CA6
:10E3000002D02046E4691FE02878182141436A685A
:10E31000401CC0B251182870AA78904200D12E70CB
:10E320000A784868012A30D1027C002A2DD18A68F7
:10E330004260CA6882600A69C260496981611C4999
:10E340000979002900D04660194943680A699C464A
:10E35000991A0902174B090A994202D28268891850
:10E3600007E06146511A09028268090A8A4202D905
:10E37000511A016000E00660466001218660017468
:10E38000C66101F09BFC002CB9D1287869788842DD
:10E39000BAD138467F1EFFB20028ABD10448C1680D
:10E3A0000098814201D00120F8BD0020F8BD000096
:10E3B000C0200020FFFF7F0038B50E4C20780028D9
:10E3C00001D0002038BD0125AB020B4A0BA1002073
:10E3D0000095FDF749F8002807D11023094A0AA142
:10E3E0000090FDF71BF8002801D0082038BD2570EB
:10E3F000E7E70000E0200020BB2900204E6F726D8F
:10E40000616C0000BB2D0020496E70757400000027
:10E410000FB408B504A900916A460399FDF78AF87C
:10E4200001B008BC04B01847A0B0B2A10020FFF7AB
:10E43000EFFF0023B74A05211846FDF78BFE0028A1
:10E4400001D0FDF739FEB44A0121B448FDF76CFE56
:10E45000002801D0FDF730FEB048B14A0121001D6F
:10E46000FDF762FE002801D0FDF726FEFEF726FB31
:10E4700000F08AFA04460246AAA10020FFF7C8FF6E
:10E48000200001D0FDF718FEFFF71EFD2846FEF71D
:10E4900027FF1120694608700922A9A168467CDF80
:10E4A000002801D0FDF708FE0024049406256846E4
:10E4B000059405820C214182FF2184829131C18221
:10E4C00004A87ADF002801D0FDF7F6FD382104A862
:10E4D000FCF78DFE02216846017401268674C5741E
:10E4E00001849A480990242115A8FCF780FE18A8F9
:10E4F0000670FF202D301990B4201A90944B15AA65
:10E500000021009404A8FDF709FF002801D0FDF7C1
:10E51000D3FD01F0F9F81C2104A8FCF768FE0520E2
:10E52000C00305900F200004069004940321684660
:10E530000177C48308A804708648099086480A9029
:10E5400004A8FEF7DDF8002801D0FDF7B5FDFDF7C2
:10E5500087FBFDF75BFCFDF70FFCFDF70FFBFDF7FD
:10E560009BFBFDF7CDFAFDF7E1FBFDF7B7FB0320C1
:10E57000FDF7C4FF002801D0FDF79EFD77A1002024
:10E58000FFF746FF714D0026AD1F287800280ED0FA
:10E590002C701FA91EA8FFF767FC002E3BD0012E90
:10E5A0005DD0022E7ED074A10020FFF731FF687885
:10E5B00000282AD06C7001A97748FEF70DFA12A93D
:10E5C0007548FEF733FA01AF03226846B91DFCF720
:10E5D000E7FD0322F91C04A8FCF7E2FD6FA100206F
:10E5E000049B019AFFF714FF12AF03226846B91D7E
:10E5F000FCF7D6FD0322F91C11A8FCF7D1FD6EA192
:10E600000020119B129AFFF703FF48DF0028BCD0BF
:10E61000FDF752FDB9E718A8017E6846017018A8F9
:10E62000417E6846417018A8817E68468170032249
:10E63000694601A8FCF7B4FD18A8017F684601747B
:10E6400018A8417F6846417418A8817F6846817484
:10E65000032204A912A8FCF7A3FD0126A7E718A826
:10E66000017E6846017518A8417E6846417518A864
:10E67000817E68468175032205A9C01DFCF790FDC7
:10E6800018A8017F6846017618A8417F6846417640
:10E6900018A8817F68468176032206A94B30FCF7D3
:10E6A0007FFD00E001E0022681E718A8017E6846B0
:10E6B000017718A8417E6846417718A8817E684690
:10E6C0008177032207A90A30FCF76AFD18A8017FA9
:10E6D00008A8017018A8417F08A8417018A8817F78
:10E6E00008A88170014603222E30FCF759FD002650
:10E6F0005DE7000020424C452045434720574954E0
:10E7000048204D5055202D2053544152542E2E0D4B
:10E710000A0000004C210020FDFC010084030200DF
:10E72000C1E80100455252434F44453A20445256F5
:10E7300020434C4F434B3A202564200D0A00000033
:10E74000454547205353564550000000EE1F00201A
:10E750006DEE010049EF010015D0010020424C454B
:10E76000204164766572746973696E6720537461C1
:10E77000727421200D0A0000434154415354524FFA
:10E7800050484943204552524F522120285357495F
:10E7900054434829200D0A005C2300202B2B5345AD
:10E7A0004E445F4650313A203078257825782578D8
:10E7B0000D0A0D0A000000002B2B53454E445F4606
:10E7C00050323A2030782578257825780D0A0D0AC0
:10E7D0000000000010B504480822416891434160E0
:10E7E000007800F0C7FF10BD9C200020F0B50B3072
:10E7F000C108C900144F0026144A0FE003688B4279
:10E800000BD38B4205D95C1A4318456830C3083BCB
:10E8100000E04368136002C004E0021D1068002895
:10E82000ECD13046002803D13868002801D0002000
:10E83000F0BD064A06481060064A121AD208D200F5
:10E8400044C001203860D7E70821002004210020BF
:10E850005C320020583A002070B5144682880E467B
:10E8600005462088111D4118921C994201D8FE2AA4
:10E8700001D90C2070BD521C32542088FF21401C4D
:10E8800080B2208031542088401C80B220808119C1
:10E89000288801F081FC2188401880B22080AA8855
:10E8A000002A09D0A968002908D08019FCF778FC53
:10E8B0002088A98840182080002070BD072070BDE6
:10E8C0007047F8B50F46017814460546012902D174
:10E8D0006878002806D02088821C9A422DD8012909
:10E8E00002D006E00720F8BD69784118891C9942DA
:10E8F00023D8181A801E86B2684606802188B81C64
:10E90000081869467DDF0028EDD12878022805D156
:10E9100069460988B14201D809210AE00821012885
:10E9200005D16878B04202D86A46108001E0684696
:10E93000068068460088FE2801D90C20F8BD228890
:10E94000401CB8542088401C80B220803954208854
:10E950006946401C20800988401820800020F8BDAE
:10E9600000207047002070470020704731B5054CEB
:10E9700004E0401E00902046FCF7ACFB0098002805
:10E98000F7D138BDE703000038B5094C207A0028DC
:10E9900001D0852038BD002060602060684612DF0D
:10E9A00069460978014300D102200121217238BD56
:10E9B0004C29002070B500280AD1064C002521689A
:10E9C000002905D008682060496828468847F6E78E
:10E9D00070BD0000502900208207D30EFF229A400C
:10E9E0008907090E10B5994000280BDA03071B0FA1
:10E9F000083B9C080C4BA400E318DC6994430C43CF
:10EA0000DC6107E08408094BA400E4182368934301
:10EA10000B432360C106C90E0120884004490860E9
:10EA20000449086010BD000000ED00E000E400E0D3
:10EA300080E200E000E100E0F3B581B00F4601980C
:10EA400000F0BEFA012400281E4E019817D0FEF7F0
:10EA5000EFF880192030007F8009032802D00128B8
:10EA600006D007E01848006901998C40204201D186
:10EA7000022100E00321019800F0B2F9FEBD00F090
:10EA8000ABFA0028FAD00198FEF7D2F805468100CB
:10EA9000C81D0E4AF93089180A6980B222430A61FA
:10EAA0000B49401800210160002FE7D00198FEF7C4
:10EAB000BFF8800030580028E0D00648AC404460E1
:10EAC000FEBD00002C26002000050050006500401F
:10EAD0000060004000630040FEB5044623480E4637
:10EAE0000019202141560027C8171346401C01D0A9
:10EAF000082738E0F27819462046FEF775F80546F3
:10EB0000401C2FD0B078002807D01948A100091860
:10EB1000086802229043086007E0002173782046CD
:10EB200000910A46019100F02DF9F078002810D0EC
:10EB30001048AA001018317802690F4B1A40026180
:10EB4000E206D20C8907890B0A4301690A43026174
:10EB500009E00648327840192030017F92011143C4
:10EB6000017700E004273846FEBD00002C26002077
:10EB70000007005000650040FFE0FCFF70B5124D3B
:10EB80002879002801D0082070BD0F4900204039A5
:10EB9000421E0B182033401CC0B21A702028F8D334
:10EBA00000242046FEF712F8641CE4B2082CF8D3C7
:10EBB00003210620FFF710FF01200449C007486029
:10EBC00001202871002070BD6C26002000630040E9
:10EBD00002480079002800D0012070476C260020F0
:10EBE000FEB507460C464079414943015E18317E27
:10EBF000002901D00820FEBD002C02D13D490001B2
:10EC000044183260207B01250128207804D8294649
:10EC100081403948C16001E000F004F92178374AA9
:10EC200001208900891808606578FF2D06D03249D7
:10EC3000A840C860284600F0C9F801E00025ED436F
:10EC4000A078FF2808D0002300931A4619460193A4
:10EC5000029000F0A9F802E00020C0430290E078A2
:10EC6000FF2804D000F0DEF8E07800F0AFF8787903
:10EC7000E17842011E4810188176396805200002AB
:10EC800023780818029A8360C5600261A268426214
:10EC9000627B237B002A00D00122012B04D0022BAF
:10ECA00004D0032B06D103E0022302E0042300E09A
:10ECB00006231A4342657A79637955010C4AAA18EA
:10ECC000D3763268002A04D0032304221B02C91819
:10ECD0004A60012505603068002804D004202179AD
:10ECE0003856FFF779FE002070763576FEBD0000BD
:10ECF000042900201C0402000005005000070050F9
:10ED00001FB50091069C029369460A710C7300229C
:10ED100000F002F804B010BDF8B50C464179174B6D
:10ED20004901C9184B7E002B01D01120F8BD0B689A
:10ED3000002B04D014231A4201D101234B76E8CCD6
:10ED40000831E8C14B79FD255B085B002B404B7116
:10ED50008B781839103CFF2B03D001259D40084BC0
:10ED6000DD60002A03D0002048760620F8BD006848
:10ED7000224600F0F2FD0020F8BD0000042900202A
:10ED80000005005030B552000A439900039C0A4325
:10ED90002102049D0A4329040A43024980004018C5
:10EDA000026030BD0007005030B552000A439900A0
:10EDB000039C0A432102049D0A4329040A43024991
:10EDC00080004018026030BD000700501CB50021D3
:10EDD00000910B46012201911146FFF7E5FF1CBD92
:10EDE000820006481018026803231B049A4302603D
:10EDF000026809040A4302607047000000070050DF
:10EE0000002904D001218140044881617047044AEF
:10EE1000002180008018016070470000000500504C
:10EE200000070050012181400148816070470000C7
:10EE300000050050034940180068012800D0002058
:10EE400070470000006000404058002800D00120BA
:10EE500070474058002800D001207047032212025A
:10EE600080184068084000D00120704710B5002885
:10EE700004D13CDF002801D0FDF71EF910BD0000D1
:10EE800070B505460088174E174C102811D0112870
:10EE90000ED1FCF723FF0020C043B0802068FDF7AF
:10EEA000DFF96068FDF7DCF910A10020FFF7B0FA88
:10EEB00070BDFCF789FFA888B080FF2100228A314D
:10EEC0002068FDF78FF9002801D0FDF7F5F8002242
:10EED00011496068FDF786F9002801D0FDF7ECF8CC
:10EEE0000EA1E2E7E81F00208403020041707020B9
:10EEF00074696D65722073746F703A206D5F626D16
:10EF0000735F7265636F72645F74696D65725F6968
:10EF1000642E2E0D0A000000F608000041707020DB
:10EF200074696D65722073746172743A206D5F62EA
:10EF30006D735F7265636F72645F74696D65725F34
:10EF400069642E2E0D0A000010B50078002807D144
:10EF500004483B21808876DF002801D0FDF7ACF81B
:10EF600010BD0000E81F00200021425C002A01D0F3
:10EF700001207047491C0629F7D300207047000084
:10EF800070B505461C200D496843441820461130D1
:10EF90000621FCF72CF920461021FCF728F9FF2167
:10EFA00021740020A176C0432083284601F0FAF89E
:10EFB000024A0020A9001C3A505070BDF8240020DD
:10EFC0000449081820214156042901DB012070471B
:10EFD000002070472C2600200449081820214156A3
:10EFE000042901D201207047002070472C26002000
:10EFF00070B50D00044602D10020FDF75DF8002C2D
:10F0000002D10020FDF758F82878207069886170D7
:10F01000090AA170A988E170090A2171E888607164
:10F02000000AA07170BD000007490979490701D4A1
:10F0300008207047002804D0044949780160002066
:10F0400070470E20704700009C2000209026002072
:10F0500070B5134B1B795B0701D4082070BD0028E5
:10F0600017D0002A15D00368022B10D20C240D4DA6
:10F070005C432E59002E0AD04668601904894589E0
:10F0800040686143654371182818884203D80720F7
:10F0900070BD0E2070BD13600020516070BD000077
:10F0A0009C200020EC280020FEB5044626480E4691
:10F0B0000079400701D40820FEBD002C25D020682F
:10F0C000022836D20C21214D48432958002930D03E
:10F0D000401941890289406851430918606881429A
:10F0E00027D9FFF771F8002811D0606801902168D6
:10F0F0000C2251434F1979680091401A39890D4605
:10F10000FCF724F8002914D103E00E20FEBD1020E6
:10F11000FEBD29463046FCF719F8002909D1002E1A
:10F1200007D0788900994543019849198019884288
:10F1300001D90720FEBD002002460090334621463B
:10F140000320FDF78BFEFEBD9C200020EC28002054
:10F1500010B507484469601C06D000F00BF8014662
:10F160002046FBF7F3FF10BD01200007406910BDEA
:10F170000010001001200007006980B270470000F5
:10F1800070B5002412482546047044702846FDF7E7
:10F1900055FE6D1C1E2DF9D30E4D6C80FFF7D8FF68
:10F1A000C61EFFF7E7FF46430B4AAE6000206C61C6
:10F1B0000C214143545089180C81401C4C81022879
:10F1C000F6D32C70AC610420EC616860002070BD47
:10F1D000902600209C200020EC280020FFB5284825
:10F1E00081B000791F4616460C46400702D408201D
:10F1F00005B0F0BD002C1DD0019800281AD0206861
:10F20000022815D20C211F4D4843295800290FD040
:10F2100041194A89088949684243511862689142F4
:10F2200006D9002E04D0B04202D3F119814203D98D
:10F230000720DDE70E20DBE70198FEF7C5FF002879
:10F240001BD03846FEF7C0FF002816D06068FEF7D6
:10F25000BBFF002811D060683246C1190198FBF746
:10F260009FFF009620680C2148432D580022022160
:10F270002046019BA8470020BAE71020B8E700000D
:10F280009C200020EC280020F8B52C4D044628795D
:10F290000E46400701D40820F8BD002C20D0002ED7
:10F2A0001ED0206800281BD0FFF764FF0146A0880D
:10F2B000814213D3102811D3E08800280ED0FFF725
:10F2C00047FF471EFFF756FF4743E288A188A8681B
:10F2D0004A431218974201D3890703D00720F8BD8B
:10F2E0000E20F8BD6988022926D031600C22144B0B
:10F2F00051437060CA18506020685850A08810812F
:10F30000E0885081FFF736FF0646FFF733FFA188FC
:10F31000E288401E514340183146FBF72DFF04465A
:10F32000FFF728FF0146A86861430818A8606888AD
:10F33000401C68800020F8BD0420F8BD9C200020FF
:10F34000EC280020F8B5044621481E4600791546F1
:10F350000F46400701D40820F8BD002F1CD0002C18
:10F360001AD02168022915D20C204143194842586D
:10F37000002A0FD008184289018940684A431018B2
:10F380006268904206D9002D04D0A94202D3A81980
:10F39000884203D90720F8BD0E20F8BD3846FEF795
:10F3A00013FF002811D03046FEF70EFF00280CD0C6
:10F3B0006068FEF709FF002807D02B463A46214631
:10F3C00001200096FDF74AFDF8BD1020F8BD0000B1
:10F3D0009C200020EC28002010B511490246087836
:10F3E000002811D004280FD0022A16D0032A0BD1EE
:10F3F0000A79120711D48A69521C8A61032A08D03B
:10F40000022802D000F0B6F910BD487800F0C4FB25
:10F4100010BD0D20FCF778FE10BDFEF717FB10BDE8
:10F420009C200020F8B5044621481E460079154668
:10F430000F46400701D40820F8BD002F1CD0002C37
:10F440001AD02168022915D20C204143194842588C
:10F45000002A0FD008184289018940684A431018D1
:10F460006268904206D9002D04D0A94202D3A8199F
:10F47000884203D90720F8BD0E20F8BD3846FEF7B4
:10F48000A3FE002811D03046FEF79EFE00280CD0C7
:10F490006068FEF799FE002807D02B463A462146C1
:10F4A00004200096FDF7DAFCF8BD1020F8BD00003E
:10F4B0009C200020EC280020012252075110886B6C
:10F4C000496B41438818704770B501240B496004AB
:10F4D00008600B4940108860094940398860094D2F
:10F4E0006C602F20FBF706FEAC60074D00242F2038
:10F4F0002C61FBF7FFFDEC7070BD000080E100E0C7
:10F500004013014000100140C020002030B50A48DF
:10F51000FF21C57D0022094C0931094B002D6250A5
:10F5200007D09969437EC268D154417E491C417617
:10F5300030BD986930BD00007426002000200040D6
:10F54000002500401FB501236A461370107203485E
:10F55000019106C8684690471FBD00007426002030
:10F5600038B5044609480090A0420DD0FFF7A4FF2B
:10F570000546234606A10020009AFEF749FF2A1BF4
:10F5800010A10020FEF744FF002038BDE81F002036
:10F5900052414D2053544152542041444452203052
:10F5A0007825782073686F756C64206265206164CB
:10F5B0006A757374656420746F20307825780D0A3D
:10F5C0000000000052414D2053495A452073686F96
:10F5D000756C642062652061646A7573746564206B
:10F5E000746F2030782578200D0A000010B50121B5
:10F5F000202805DA1A4A8140114201D1194810BD6C
:10F600008107C90E002808DA0207120F083A92088B
:10F61000154B9200D218D26904E08208134B920075
:10F62000D2181268CA401106890F042911D2002984
:10F630000FD002290DD00E494C68C306DB0E012203
:10F640009A40002C08D0400980000B5813430B50FF
:10F6500004E00448401C10BD06480260002010BDB4
:10F66000FC06FFBC0120000000ED00E000E400E02B
:10F67000F820002000E100E0FFB50746806A81B075
:10F68000144600283DD0002538462030009033E055
:10F690000C20B96A68430E18B088801CFE2802D975
:10F6A0000C2005B0F0BD22880299401C88542088A7
:10F6B0001622401C80B2208002990A542088401CE7
:10F6C00080B2208002994118308800F065FD2188C1
:10F6D000401880B22080B288002A0AD0B168002980
:10F6E0000FD0029BC018FBF75BFD2088B188401843
:10F6F00020806D1C0098EDB2007BA842C8D8002085
:10F70000CFE70720CDE7000000B591B01248FDF724
:10F7100039F940216846FBF76AFD10A16846FDF7FC
:10F72000C3F911A102A8FDF7BFF90FA108A8FDF7C1
:10F73000BBF90120014608A81031017700200146DD
:10F7400008A841776846FDF77DF8002801D0FCF74E
:10F75000B3FC11B000BD00005C2300205643552DC2
:10F7600059454F2D4C41420056657273696F6E20AA
:10F77000312E300010B50F490028087009D001283B
:10F7800011D0022812D0032802D14869FEF79EF951
:10F7900010BD00208861C861074840780028F7D074
:10F7A000FDF730FB10BD00F0AFF910BD00F00EF911
:10F7B00010BD00009C20002090260020002803D0CF
:10F7C0000249C860002070470E207047E4200020E6
:10F7D0007CB50446144801900246009013A1002015
:10F7E000FEF716FE6946204660DF04460199009840
:10F7F00088420ED0FFF760FE054615A10020009A52
:10F80000FEF706FE009821A12A1A0020FEF700FE4E
:10F8100007E0002C05D0224626A10020FEF7F8FDC7
:10F82000FEE720467CBD0000E81F002073645F6295
:10F830006C655F656E61626C653A2052414D205384
:10F840005441525420617420307825780D0A00000C
:10F8500073645F626C655F656E61626C653A2061BE
:10F8600070705F72616D5F626173652073686F7540
:10F870006C642062652061646A75737465642074C9
:10F880006F20307825780D0A0000000072616D202D
:10F8900073697A652073686F756C64206265206196
:10F8A000646A757374656420746F203078257820DD
:10F8B0000D0A000073645F626C655F656E61626C67
:10F8C000653A206572726F7220307825780D0A00D3
:10F8D00070B50E460546144614211046FBF787FC0A
:10F8E0000120002120802161217326726572002D84
:10F8F00000D0A072002070BD10B5FCF7CFFB10BD8A
:10F90000FFB581B01D4616460C46FEF755FD002C8E
:10F9100001D0A00702D0072005B0F0BD2046074C5B
:10F920000127A060668065600549019810DF002806
:10F93000F2D127701620FFF759FEEDE7E4200020F2
:10F94000F9F80100002803D002490861002070473F
:10F950000E207047E42000207047F8B500270E46BF
:10F960000F77044603210420090261188860FF25EF
:10F97000093567511079002802D01068007800E03E
:10F98000F07E05231B02E318D8611079012802D903
:10F990001068407803E0107B012801D9F07ED8611F
:10F9A0003068002802D004204860F8BD6059002863
:10F9B000FCD067513146204600F0E6F90028F5D129
:10F9C000B07EFF28F1D0FFF72DFAF8BDF8B5164C40
:10F9D0001422606840084000606014480178514378
:10F9E0000E183769FFF7C6FB01463846FBF7AEFB3A
:10F9F00005466061FFF7BEFB0146F0887F1EC01917
:10FA0000FBF7A4FB02228542606801D1104300E0AD
:10FA100090436060E1681040084303D0002000F08C
:10FA2000BBF8F8BD0220FAE79C20002090260020B9
:10FA300010B502484069FEF749F810BD9C2000202F
:10FA400010B5FFF785FB441EFFF794FB4443FFF717
:10FA500091FB04494A69521E5043CA682146FEF789
:10FA60003AF810BD9C200020F8B510481422017807
:10FA700051430C182569FFF77DFB0146E088228978
:10FA800080184019FBF762FB0F46FFF761FB461E2B
:10FA9000FFF770FB4643E0882289F1198018044A79
:10FAA00040191269FEF717F8F8BD000090260020F3
:10FAB0009C20002070B5FFF75DFB0546FFF748FB73
:10FAC000441EFFF757FB60432946FBF73FFBFDF75A
:10FAD000FDFF70BD70B5FFF74DFB8608FFF74AFBD1
:10FAE0000749496948430446FFF732FB451EFFF7C3
:10FAF00041FB684332462146FDF7EDFF70BD000033
:10FB00009C2000200020704770B514481422017812
:10FB100051430C18241DFFF72DFB6188104E8842BD
:10FB200011D2FFF727FB61880D1AFFF723FB82082C
:10FB3000A188E0684018216940194919FDF7CBFFF9
:10FB4000FFF718FB07E0A288E06880188A0821699F
:10FB5000FDF7C1FF6088F06170BD000090260020B5
:10FB60009C20002010B505480079000703D401202F
:10FB700000F012F810BD00F003F810BD9C2000202A
:10FB800010B504480822416891434160407800F074
:10FB900003F810BD9C2000200249487002498000F3
:10FBA000085800479C200020F403020010B50446CA
:10FBB000FFF712FC2046FCF781FC10BD70B50C006D
:10FBC000054602D10020FCF777FA002D02D1002073
:10FBD000FCF772FA207828702088FF21090208407B
:10FBE000000A6870206809020840000CA8702068AC
:10FBF000000EE87020792871207A68712089000A47
:10FC0000A871A068000CE87170BD000010B505482F
:10FC10000079000702D4FDF7E3F810BDFFF7B0FF4D
:10FC200010BD00009C200020FEB51F4C0025276958
:10FC3000E06802906846FDF7D9FE0190FEF7F4FAFD
:10FC400006460198002822D000230098E16817E0BA
:10FC50000E680A46864202D9301A086012E0801BFC
:10FC6000F31800261660D668D169B446002E07D076
:10FC7000FE183602360A566066469660D56115460D
:10FC80000029E5D12846E160FEF72CFB06E0284676
:10FC9000FEF728FB002801D1002E02D00298FDF7C4
:10FCA00021F900202071FEBDC02000200120024962
:10FCB000000508607047000000E200E010B50E4B40
:10FCC000D968002906D002680C68A24204D8A21A9A
:10FCD0000A60C161D86010BD0B4604E00B46C969DB
:10FCE000121B002904D00C689442F7D3A41A0C60AC
:10FCF0000260C161D86110BDC0200020014901200F
:10FD000048707047E81F0020F8B51D4DEC68002CC6
:10FD100034D01C48002740682969401A0602360A78
:10FD20002068B04218D8361AC7192246107CE469F8
:10FD300000280FD0002010746B69002B07D0916948
:10FD400050699847002805D0FCF7B6F902E05169E0
:10FD500090698847002CE3D16978A878814206D160
:10FD6000401CC0B2A870022801D10020A87004492C
:10FD70000006800D18310F50FFF798FFF8BD000006
:10FD8000C02000200015014038B50522120283185A
:10FD900098696A461070087F0A7D904203D26A46CD
:10FDA00012780C692254087F401CC2B20A770C7B7F
:10FDB000501C844202D98968085C03E00D7D8542AD
:10FDC00002D9C87ED86103E0A24201D3AA4201D27F
:10FDD000012038BD002038BDFFB50027FF2285B0C7
:10FDE0000C4605321E46A750FF222532A750FF229F
:10FDF0001D32A750FF220932A75005462035CA1DE3
:10FE0000FF32AF71FA32EF70012B0FD00123136074
:10FE10000122226222600268002A09D01049816012
:10FE20008068032109026118486015E00223EEE7AB
:10FE30000146263123300391029000200190009664
:10FE40002046079B039A029900F023F80028F4D17A
:10FE5000E878002800D00327384609B0F0BD00003C
:10FE60008602000030B51C78039D944208D205221A
:10FE70001202095D8018C1611878401C187006E0F4
:10FE80000121002D02D0C161002030BD416101205F
:10FE900030BDFFB50F46097881B00446012904D072
:10FEA000039802780A98824201D1012600E00026D8
:10FEB000FF2025300025002907D02550FF201D30C8
:10FEC0002550FF200930255056E0FF2125312046DE
:10FED000FEF7BAFF00282CD1FF211D312046FEF786
:10FEE000B3FF002814D0FF201D302550FF212531FD
:10FEF0002046FEF7A9FF00281BD10B980090204652
:10FF0000039B0A9A0499FFF7ADFF002840D033E025
:10FF1000FF2109312046FEF797FF00282CD0FF2053
:10FF200009302550FF2125312046FEF78DFF00289E
:10FF300006D0FF20253025500120606138701BE07D
:10FF400003990A980F78049ABC46874214D2052375
:10FF50001B02E3189B696746D3550A78521CD2B23C
:10FF60000A70411E8A4203D102200102085101E0B9
:10FF7000824201D001212162002E0BD0FF260536DE
:10FF800031462046FEF760FF002803D0A55100202F
:10FF900005B0F0BD0120FBE7FFB5054687B00C4674
:10FFA0000020FF21109F053105906050FF21253171
:10FFB0006050FF211D316050FF2109316050012147
:10FFC00049022E4608512036B071F070012020629F
:10FFD000A060B31D0097029320460A9A0999FFF783
:10FFE00041FF2868002807D00D48A860A8680321B1
:10FFF00009026118486010E023350A9800900197C3
:020000040002F8
:1000000029462046099B029AFFF743FF0028F4D1B6
:10001000F078002801D00320059005980BB0F0BDC2
:1000200086020000FF2107481D3100224250064889
:10003000828A8168895C828A521C82820348C161FB
:10004000704700000020004074260020002500407A
:100050001FB500216A46117010720448826801922F
:10006000817506C8684690471FBD000074260020B1
:10007000F0B5454D012185B049022846FEF7EEFE58
:1000800001270026414C002824D0FF212531284695
:10009000FEF7DFFE00281DD0FF2025302E508120E6
:1000A0003B4980008860A07E002800D16F6002215B
:1000B000684601703749086808600390E17D68462A
:1000C0000172E0680190E675267606CC6846083C29
:1000D00090472BE004212846FEF7C0FE002825D0DB
:1000E000FF2109312846FEF7B4FE00281ED0FFF795
:1000F0000DFAE07D617E884218D1207E002808D06C
:10010000627EE168E0752069E060267666761046DA
:100110000AE0A07E002800D16F6081201C49800089
:100120008860E675607EE168FFF70CFAFF211D31FB
:100130002846FEF78EFE00280DD0A18AA07D8142C0
:1001400002D2FFF76FFF06E0FF211D316E5000283D
:1001500001D0FFF77DFFFF2145312846FEF779FEEC
:1001600000280ED0FF2045302E50A07E002800D061
:100170002F60E07D002804D0E675607EE168FFF71F
:10018000E1F905B0F0BD0000002000407426002019
:1001900000230040802400400870000A48700220BC
:1001A0007047000001218140024842688A43426052
:1001B000704700003820002038B51549154A488896
:1001C00090420FD04A78144C521CD2B24A70237B12
:1001D000934208D3091D75DF002803D0A1690029C7
:1001E00000D0884738BD00254D70217C002907D0FC
:1001F0003B2176DF002803D0A169002900D0884781
:1002000061690029EED068460570884738BD000056
:1002100024200020FFFF0000C0240020EFF3058011
:10022000C005C00D1AD0103840B2002808DA010706
:10023000090F083989080C4A89008918C96904E03E
:1002400081080A4A8900891809688007C00EC140E0
:100250000806800F012803D0032803D0022070472E
:10026000002070470120704700ED00E000E400E04E
:1002700042788378521CD2B2934200D10022037894
:10028000934201D1002070470A70416840781822DB
:10029000504308187047FFB583B016460C9D0D9C5F
:1002A0001F46022200950194039800F00CF80028E4
:1002B00007D13B461022314600950194039800F087
:1002C00002F807B0F0BDFFB583B0074600200C9CD4
:1002D0008646268805463AE07868A90042181188C3
:1002E000684681805188C1800022694601A865DF87
:1002F000002839D1684601780598814226D1704698
:10030000002801D0002200E002222088891842182B
:100310000D998A4227D8714600290AD1401C80B223
:100320002080069A049911542088401C20800120C6
:100330008646218806980A18694601A865DF0028C4
:1003400012D1694620880978401820806D1C3888B1
:10035000A842C1DC704600280AD02088801B401EBD
:1003600080B2FF2802D90C2007B0F0BD069988554D
:100370000020F9E70179002902D1007B002800D094
:10038000012070470C2100202C21002000020107D1
:10039000020000005780D294A3B2FE395F87FD357A
:1003A00000008B220030004003000100010203FF27
:1003B00003FF00000000004000000000A024002017
:1003C000FFFFFFFF69E90100A5DD0100C1DC0100BD
:1003D00061DE010065E9010075DD0100BDDC0100A1
:1003E00059DE010061E90100C5DC0100B9DC010052
:1003F00051DE0100B5FA0100D5FA010031FA010021
:1004000069FA010041FA010065FB01002DD10100EC
:10041000D9D001000DFC01007DDF0100010203FFC6
:1004200003FF0000000000400000000030313233C4
:100430003435363738394142434445465C0402007E
:10044000E81F002024010000E2BA0100800502003C
:100450000C2100204C210000F2BA01000000000035
:10046000FFFFF04401000A18010001A3006091237E
:100470000000020700000000000000000000000073
:10048000FFFF00000000000000000000000000006E
:10049000000000000000000000000000000000005C
:1004A000000000000000000000000000000000004C
:1004B000000000000000000000000000000000003C
:1004C000000000000000000000000000000000002C
:1004D000000000000000000000000000000000001C
:1004E000000000000000000000000000000000000C
:1004F00000000000000000000000000000000000FC
:1005000000000000000000000000000000000000EB
:1005100000000000000000000000000000000000DB
:1005200000000000000000000000000000000000CB
:1005300000000000000000000000000000000000BB
:1005400000000000000000000000000000000000AB
:10055000000000000000000000000000000000009B
:10056000000000000000000000000000000000008B
:10057000000000000024F400000000000000000063
:040000050001B0C185
:00000001FF
